{
  "_format": "hh-sol-artifact-1",
  "contractName": "Assessment",
  "sourceName": "contracts/Assessment.sol",
  "abi": [
    {
      "inputs": [
        {
          "internalType": "uint256",
          "name": "initBalance",
          "type": "uint256"
        }
      ],
      "stateMutability": "payable",
      "type": "constructor"
    },
    {
      "inputs": [
        {
          "internalType": "uint256",
          "name": "balance",
          "type": "uint256"
        },
        {
          "internalType": "uint256",
          "name": "withdrawAmount",
          "type": "uint256"
        }
      ],
      "name": "InsufficientBalance",
      "type": "error"
    },
    {
      "anonymous": false,
      "inputs": [
        {
          "indexed": false,
          "internalType": "uint256",
          "name": "amount",
          "type": "uint256"
        }
      ],
      "name": "Borrow",
      "type": "event"
    },
    {
      "anonymous": false,
      "inputs": [
        {
          "indexed": false,
          "internalType": "uint256",
          "name": "amount",
          "type": "uint256"
        }
      ],
      "name": "Deposit",
      "type": "event"
    },
    {
      "anonymous": false,
      "inputs": [
        {
          "indexed": false,
          "internalType": "uint256",
          "name": "amount",
          "type": "uint256"
        },
        {
          "indexed": false,
          "internalType": "address",
          "name": "recipient",
          "type": "address"
        }
      ],
      "name": "Transfer",
      "type": "event"
    },
    {
      "anonymous": false,
      "inputs": [
        {
          "indexed": false,
          "internalType": "uint256",
          "name": "amount",
          "type": "uint256"
        }
      ],
      "name": "Withdraw",
      "type": "event"
    },
    {
      "inputs": [],
      "name": "balance",
      "outputs": [
        {
          "internalType": "uint256",
          "name": "",
          "type": "uint256"
        }
      ],
      "stateMutability": "view",
      "type": "function"
    },
    {
      "inputs": [
        {
          "internalType": "uint256",
          "name": "_amount",
          "type": "uint256"
        }
      ],
      "name": "borrow",
      "outputs": [],
      "stateMutability": "nonpayable",
      "type": "function"
    },
    {
      "inputs": [
        {
          "internalType": "uint256",
          "name": "_amount",
          "type": "uint256"
        }
      ],
      "name": "deposit",
      "outputs": [],
      "stateMutability": "payable",
      "type": "function"
    },
    {
      "inputs": [],
      "name": "getBalance",
      "outputs": [
        {
          "internalType": "uint256",
          "name": "",
          "type": "uint256"
        }
      ],
      "stateMutability": "view",
      "type": "function"
    },
    {
      "inputs": [],
      "name": "owner",
      "outputs": [
        {
          "internalType": "address payable",
          "name": "",
          "type": "address"
        }
      ],
      "stateMutability": "view",
      "type": "function"
    },
    {
      "inputs": [
        {
          "internalType": "address payable",
          "name": "_recipient",
          "type": "address"
        },
        {
          "internalType": "uint256",
          "name": "_amount",
          "type": "uint256"
        }
      ],
      "name": "transfer",
      "outputs": [],
      "stateMutability": "nonpayable",
      "type": "function"
    },
    {
      "inputs": [
        {
          "internalType": "uint256",
          "name": "_withdrawAmount",
          "type": "uint256"
        }
      ],
      "name": "withdraw",
      "outputs": [],
      "stateMutability": "nonpayable",
      "type": "function"
    },
    {
      "stateMutability": "payable",
      "type": "receive"
    }
  ],
  "bytecode": "0x6080604052604051610b98380380610b98833981810160405281019061002591906100ad565b336000806101000a81548173ffffffffffffffffffffffffffffffffffffffff021916908373ffffffffffffffffffffffffffffffffffffffff16021790555080600181905550506100da565b600080fd5b6000819050919050565b61008a81610077565b811461009557600080fd5b50565b6000815190506100a781610081565b92915050565b6000602082840312156100c3576100c2610072565b5b60006100d184828501610098565b91505092915050565b610aaf806100e96000396000f3fe6080604052600436106100745760003560e01c8063a9059cbb1161004e578063a9059cbb146100ff578063b69ef8a814610128578063b6b55f2514610153578063c5ebeaec1461016f5761007b565b806312065fe0146100805780632e1a7d4d146100ab5780638da5cb5b146100d45761007b565b3661007b57005b600080fd5b34801561008c57600080fd5b50610095610198565b6040516100a291906106b2565b60405180910390f35b3480156100b757600080fd5b506100d260048036038101906100cd91906106fe565b6101a2565b005b3480156100e057600080fd5b506100e96102f3565b6040516100f6919061076c565b60405180910390f35b34801561010b57600080fd5b50610126600480360381019061012191906107b3565b610317565b005b34801561013457600080fd5b5061013d6104ac565b60405161014a91906106b2565b60405180910390f35b61016d600480360381019061016891906106fe565b6104b2565b005b34801561017b57600080fd5b50610196600480360381019061019191906106fe565b6105b8565b005b6000600154905090565b60008054906101000a900473ffffffffffffffffffffffffffffffffffffffff1673ffffffffffffffffffffffffffffffffffffffff163373ffffffffffffffffffffffffffffffffffffffff1614610230576040517f08c379a000000000000000000000000000000000000000000000000000000000815260040161022790610876565b60405180910390fd5b6000600154905081600154101561028257600154826040517fcf479181000000000000000000000000000000000000000000000000000000008152600401610279929190610896565b60405180910390fd5b816001600082825461029491906108ee565b9250508190555081816102a791906108ee565b600154146102b8576102b7610922565b5b7f5b6b431d4476a211bb7d41c20d1aab9ae2321deee0d20be3d9fc9b1093fa6e3d826040516102e791906106b2565b60405180910390a15050565b60008054906101000a900473ffffffffffffffffffffffffffffffffffffffff1681565b60008054906101000a900473ffffffffffffffffffffffffffffffffffffffff1673ffffffffffffffffffffffffffffffffffffffff163373ffffffffffffffffffffffffffffffffffffffff16146103a5576040517f08c379a000000000000000000000000000000000000000000000000000000000815260040161039c90610876565b60405180910390fd5b8060015410156103ea576040517f08c379a00000000000000000000000000000000000000000000000000000000081526004016103e19061099d565b60405180910390fd5b60006001549050816001600082825461040391906108ee565b925050819055508273ffffffffffffffffffffffffffffffffffffffff166108fc839081150290604051600060405180830381858888f19350505050158015610450573d6000803e3d6000fd5b50818161045d91906108ee565b6001541461046e5761046d610922565b5b7fabe1dcf9fcb8e5fb309db76bcab112a217aa5754d0f038921282bfe7907aa516828460405161049f929190610a1c565b60405180910390a1505050565b60015481565b6000600154905060008054906101000a900473ffffffffffffffffffffffffffffffffffffffff1673ffffffffffffffffffffffffffffffffffffffff163373ffffffffffffffffffffffffffffffffffffffff1614610547576040517f08c379a000000000000000000000000000000000000000000000000000000000815260040161053e90610876565b60405180910390fd5b81600160008282546105599190610a45565b92505081905550818161056c9190610a45565b6001541461057d5761057c610922565b5b7f4d6ce1e535dbade1c23defba91e23b8f791ce5edc0cc320257a2b364e4e38426826040516105ac91906106b2565b60405180910390a15050565b60008054906101000a900473ffffffffffffffffffffffffffffffffffffffff1673ffffffffffffffffffffffffffffffffffffffff163373ffffffffffffffffffffffffffffffffffffffff1614610646576040517f08c379a000000000000000000000000000000000000000000000000000000000815260040161063d90610876565b60405180910390fd5b80600160008282546106589190610a45565b925050819055507fb848ae6b1253b6cb77e81464128ce8bd94d3d524fea54e801e0da869784dca338160405161068e91906106b2565b60405180910390a150565b6000819050919050565b6106ac81610699565b82525050565b60006020820190506106c760008301846106a3565b92915050565b600080fd5b6106db81610699565b81146106e657600080fd5b50565b6000813590506106f8816106d2565b92915050565b600060208284031215610714576107136106cd565b5b6000610722848285016106e9565b91505092915050565b600073ffffffffffffffffffffffffffffffffffffffff82169050919050565b60006107568261072b565b9050919050565b6107668161074b565b82525050565b6000602082019050610781600083018461075d565b92915050565b6107908161074b565b811461079b57600080fd5b50565b6000813590506107ad81610787565b92915050565b600080604083850312156107ca576107c96106cd565b5b60006107d88582860161079e565b92505060206107e9858286016106e9565b9150509250929050565b600082825260208201905092915050565b7f596f7520617265206e6f7420746865206f776e6572206f66207468697320616360008201527f636f756e74000000000000000000000000000000000000000000000000000000602082015250565b60006108606025836107f3565b915061086b82610804565b604082019050919050565b6000602082019050818103600083015261088f81610853565b9050919050565b60006040820190506108ab60008301856106a3565b6108b860208301846106a3565b9392505050565b7f4e487b7100000000000000000000000000000000000000000000000000000000600052601160045260246000fd5b60006108f982610699565b915061090483610699565b925082820390508181111561091c5761091b6108bf565b5b92915050565b7f4e487b7100000000000000000000000000000000000000000000000000000000600052600160045260246000fd5b7f496e73756666696369656e742062616c616e6365000000000000000000000000600082015250565b60006109876014836107f3565b915061099282610951565b602082019050919050565b600060208201905081810360008301526109b68161097a565b9050919050565b6000819050919050565b60006109e26109dd6109d88461072b565b6109bd565b61072b565b9050919050565b60006109f4826109c7565b9050919050565b6000610a06826109e9565b9050919050565b610a16816109fb565b82525050565b6000604082019050610a3160008301856106a3565b610a3e6020830184610a0d565b9392505050565b6000610a5082610699565b9150610a5b83610699565b9250828201905080821115610a7357610a726108bf565b5b9291505056fea264697066735822122007f0d0212714d16a696f17837601121c1dcf01daaf8922adae0d6514d7200cfd64736f6c63430008110033",
  "linkReferences": {},
  "deployedLinkReferences": {}
}